:020000040000FA
:10000000780D00203D0200006F020000E9010000B1
:10001000730200007502000077020000000000007B
:100020000000000000000000000000007902000055
:100030007B020000000000007D0200007F02000043
:1000400081020000810200008102000081020000A4
:100050008102000081020000810200008102000094
:100060008102000081020000810200008102000084
:100070008102000081020000810200008102000074
:100080008102000081020000810200008102000064
:100090008102000081020000810200008102000054
:1000A0008102000081020000810200008102000044
:1000B0008102000081020000810200008102000034
:1000C000DD100000810200008102000081020000BA
:1000D0008102000081020000810200008102000014
:1000E0008102000081020000810200008102000004
:1000F00081020000810200008102000081020000F4
:1001000081020000810200008102000081020000E3
:1001100081020000810200008102000081020000D3
:1001200081020000810200008102000081020000C3
:1001300081020000810200008102000081020000B3
:1001400000F002F800F041F80AA090E8000C8244A8
:100150008344AAF10107DA4501D100F036F8AFF285
:10016000090EBAE80F0013F0010F18BFFB1A43F095
:1001700001031847341D0000541D0000103A24BF2D
:1001800078C878C1FAD8520724BF30C830C144BFFC
:1001900004680C607047000000230024002500263E
:1001A000103A28BF78C1FBD8520728BF30C148BFDA
:1001B0000B607047782900F08780002070471FB5DA
:1001C00001F030FE1FBD10B510BD00F033FA11462E
:1001D000FFF7F5FF01F016FD00F051FA03B4FFF749
:1001E000F2FF03BC01F0B0FC7046400702D4EFF30D
:1001F000088001E0EFF3098081690B884BF6AB6260
:10020000934202D104318161704704207146084253
:1002100002D0EFF3098001E0EFF308807146014A54
:100220001047FEE7890A0000ABBE01E000207047DE
:10023000002A00D0106001207047000014484FF0E1
:10024000590101604FF0160101604FF08801016013
:10025000104A45F6A52111600F4A116821F480511A
:100260001160002101600D4880470D480047FEE7FE
:10027000FEE7FEE7FEE7FEE7FEE7FEE7FEE7FEE756
:10028000FEE7000007480849064A084B704700008F
:10029000000100402400004000020040C10F0000A7
:1002A0004101000078090020780D00207809002025
:1002B0000FB4044910B503AA029800F069F910BC04
:1002C0005DF814FB3000002070B504460D46214651
:1002D0001068AFF300802188090502D50F4A7A44DF
:1002E00002E00E4A7A440E32002104F1240305E0B4
:1002F00000F00F060009965D5E54491C0028F7D1F6
:1003000020780023000704D5702D02D009B1022304
:1003100011322046BDE8704000F0E0B89E1B00009E
:100320002DE9F0474FF0000A89460446C0F820A0A6
:100330002046E1688847002876D0252806D0D4E9F1
:1003400001219047206A401C2062F1E7E1682046C5
:1003500000258847C4F81CA006460027C4F818A04A
:100360002A2E09D0304601F0E7FB38B304EB8708AA
:10037000303EC8F8186019E059F8041B204604EB19
:1003800087029161E1688847012F064618D1E0692C
:10039000002820DA25F020051DE0D8F8180000EB31
:1003A000800006EB40003038C8F818002046E168AD
:1003B0008847064601F0C0FB0028EED1012F0AD085
:1003C0002E2E08D12046E16888477F1C0646022F62
:1003D00045F02005C4DBA069002803DA404245F05F
:1003E0000105A061E80701D025F01005B6B1A6F11E
:1003F0004100192802D8203645F400654A463146A6
:10040000204625604D46FFF7D5FE58B1012806D09D
:10041000ED1D25F0070000F1080989E704E005F16A
:10042000040985E730468AE7206ABDE8F08710B501
:10043000203AC0F00B80B1E81850203AA0E81850DC
:10044000B1E81850A0E81850BFF4F5AF5FEA027C9D
:1004500024BFB1E81850A0E8185044BF18C918C00C
:10046000BDE810405FEA827C24BF51F8043B40F8AD
:10047000043B08BF7047D20728BF31F8023B48BF92
:1004800011F8012B28BF20F8023B48BF00F8012BD0
:1004900070474FF000020429C0F0128010F0030CE6
:1004A00000F08A80CCF1040CBCF1020F18BF00F8F8
:1004B000012BA8BF20F8022BA1EB0C0100F07CB8A7
:1004C0005FEAC17C24BF00F8012B00F8012B48BF74
:1004D00000F8012B70477047704770472DE9F047CF
:1004E0000D4699469246044600F1240801688806A4
:1004F00004D5E06921F01001216000E00120A8424C
:1005000001DD471B00E00027A1697A1902EB090011
:10051000081AA0612078C00602D42046AFF30080FC
:10052000002608E0D4E901211AF806009047206A65
:10053000401C761C20624E45F4DB2078C0060AD5AC
:100540002046AFF3008006E0D4E901213020904737
:10055000206A401C2062381EA7F10107F4DC07E086
:10056000D4E9012118F805009047206A401C206258
:10057000281EA5F10105F3DC2046AFF300802078AA
:10058000000602D50220BDE8F0870120FBE700004D
:10059000074B70B50D467B4400F039F804462846F9
:1005A00001F0E0FA10B14FF0FF3070BD204670BD91
:1005B000D11500004FF0000200B513469446964650
:1005C000203922BFA0E80C50A0E80C50B1F1200166
:1005D000BFF4F7AF090728BFA0E80C5048BF0CC014
:1005E0005DF804EB890028BF40F8042B08BF704772
:1005F00048BF20F8022B11F0804F18BF00F8012BE4
:100600007047000001694A1C02610878704700B514
:100610008FB0CDE901310021059105497944CDE93B
:10062000031011466846FFF77BFE0FB000BD0000C7
:10063000E5FFFFFF754600F029F8AE460500694664
:10064000534620F00700854618B020B5FFF71AFE84
:10065000BDE820404FF000064FF000074FF00008C3
:100660004FF0000B21F00701AC46ACE8C009ACE844
:10067000C009ACE8C009ACE8C0098D467047044623
:10068000AFF300802046FFF7A9FD00000048704747
:10069000140900204FF08040D0F8401241F480311E
:1006A000C0F840127047810F890001F18041D1F8F4
:1006B000042200F01F03012098400243C1F80422E5
:1006C000704700002DE9F84F0C460646FFF7E2FFA1
:1006D0004FF0804B524FDFF84C81DBF80012584648
:1006E0009EB141F00401C0F80012102000F08CF916
:1006F0004FF40020C146042100904B484B4A20444F
:1007000090420ED84FF0000A1CE041F00101C0F801
:100710000012012000F078F90020B9460221009073
:10072000EBE74348434A2044904203D84FF0010A84
:10073000640007E04048414A2044904242D84FF0CC
:10074000030AA40000254FF0FF322F4622E0B9FB38
:10075000F1FC3B483B4B604498421AD2DFF8E8E09A
:10076000DFF8E88002260CFB06F000EB0E034345A1
:100770000AD8A04201D9031B00E0231A934203D2F6
:100780001A000D46374604D040F20120761C8642FE
:10079000E9D9491C2129DAD9009840EA8A312C4844
:1007A00000EB45200143B81E0143CBF84012042062
:1007B00000F02AF90AF101006843B9FBF0F0784330
:1007C000BDE8F88F7EB12349CBF84012042000F039
:1007D0001BF921A000680090DBF8401211F4A02F53
:1007E00004D00020ECE74CF22E01EDE7080301D520
:1007F000404600E038468A03E2D4C1F30802C1F360
:1008000081338008921C1DF80330C1F3442150430A
:10081000891C11FB03F1B0FBF1F08000D0E7000070
:10082000001BB700008051017F4D19F17FB2E60E29
:10083000BFA68CF83F597307800F05FDC068780488
:10084000FF95E7FFFFB9DB00003E14F400A3E111C0
:1008500000FCFFFF32C40800010202044FF0804197
:10086000D1F800220243C1F80022704708B512A057
:10087000006800904FF08040D0F8401211F4A02F93
:1008800001D0002008BD080301D50C4800E00C4849
:100890008A03F7D4C1F30802C1F381338008921CA4
:1008A0001DF80330C1F344215043891C11FB03F1AF
:1008B000B0FBF1F0800008BD01020204008051018C
:1008C000001BB70070B54FF080450446D5F85002C4
:1008D00000F010061D48844202D81D48844200D210
:1008E0000446D5F8000240F00400C5F800021020CC
:1008F00005F5007500F088F8286940F007002861C8
:10090000286A20F00F0028622868A5F50075C00746
:100910004FEA440104D00020FFF7D4FE044608E06B
:100920004FF40020FFF7CEFE0446D5F8500200F049
:1009300010060121022000F00DF82EB9D5F80002B2
:1009400020F00400C5F80002600870BD00A24A044F
:1009500040787D012DE9F0414FF080440746D4F8FE
:1009600050020E4600F01005D4F8000240F00400DA
:10097000C4F80002102004F5007400F045F8206966
:1009800040F007002061206A20F00F003043206211
:10099000206920F0070038432061A4F5007400F0BE
:1009A000C5FA002D05D1D4F8000220F00400C4F8E7
:1009B0000002BDE8F081000070B510F47F3F0DD05B
:1009C000104CC0F3814304EB83031C68C0F38725FC
:1009D000C0F34416B540AC4314431C60420E5207AA
:1009E0000ED0084BC0F30172103B03EB8202136878
:1009F000C0F34264C0F304508440A3430B4313602C
:100A000070BD00002002004010B5044608494FF0B8
:100A1000804205E00B1EA1F1010101DC002010BDA8
:100A2000D2F8503234EA0300F4D1012010BD0000A6
:100A300080F520000248016841F001010160704723
:100A400000C0004005490022CA6048608A60012059
:100A5000086108690028FCD18868704700C0004020
:100A60002DE9F0410D46064600244FF4401706E0FC
:100A700007EB8400FFF7E6FF46F82400641CAC4255
:100A8000F6D30020BDE8F081044603A0FFF710FC78
:100A9000204601F067F9FEE7496E20486172642044
:100AA0004661756C742048616E646C65720A000062
:100AB00002488069C0F300707047000000000740E2
:100AC00001A1085C7047000068656C6C6F20776F4F
:100AD000726C640070B5002000F0E2FE04240C4E3D
:100AE0004FF47A7510E00A490820243100F0E4FE42
:100AF000284601F0EDF8C1B23078002806D14F2920
:100B000002D1284601F0E4F8641EECD170BD00006B
:100B1000340000202DE9F05FDFF8F0900025032677
:100B20004FF0FF3B0124A9F124084FF4005A40F292
:100B30006B1721E0002000F0B3FE89F8034098F81D
:100B40001800324940E03148001F00F0F7FD082846
:100B500057D009DC00F1030008280DD2DFE800F0CF
:100B60000E0E0C110C2B0C190F28ECD0102805D0F0
:100B700011282CD012282ED0761EDBD55846BDE881
:100B8000F09F002000F08CFE89F803401F490120EF
:100B90001AE01E48001FC17888F8021051461C4810
:100BA000C8F8184000F04AF8B84201D10420E6E73E
:100BB0001649062008E016482021213800F03EF8AA
:100BC000B842F5D11149032000F076FEBBE750464C
:100BD00000F066FEF6E751460D4800F02FF8B842E7
:100BE000E6D1002000F05CFE08490F2000F064FE12
:100BF0006D1C0A2D05DA0548001F00F09FFD08282E
:100C0000F2D1FFF767FF0F20B9E70000580000207E
:100C1000B108002010B50446204600F05FF8052812
:100C200001D00B2807D1FFF775FF0428F4D00F2857
:100C300002D04FF0FF3010BD002010BD2DE9F04173
:100C4000254E00270D4604464FF0FF38F76100F0AF
:100C5000D7FD010A32D04FF4B474A04214D00BDC9B
:100C600010F1030F06D010F1020F03D0B0F58C7F06
:100C700000D11020BDE8F081A0F58071693903D062
:100C8000012901D00229F5D10546C0B2394600F04C
:100C90007FFE074600F0B4FD010ADED1394600F0C0
:100CA00077FE074600F0ACFD010AD6D1394600F0C8
:100CB0006FFE0004000C03D12846DBE76D1E01D552
:100CC0004046D7E7F169491CF16104F8010B394648
:100CD00000F05EFE0746BAE7340000202DE9F04739
:100CE000414D0A2400206FF001094FF0FF384FF406
:100CF0000057E862E86A00F0D3FD3B49243109203F
:100D000045E03948203000F019FD06282DD006DCDA
:100D100048452AD0404528D0042828D15AE00A283E
:100D200002D00B2823D15AE0D5E90A0188421CD110
:100D30004FF4B476E96AE86808443946FFF77EFF65
:100D4000B0423FD009DC10F1030F10D048450CD061
:100D500040450AD0102808D109E0A0F58070693814
:100D600028D0012816D0022804D0641EC2D54046DF
:100D7000BDE8F0871C480A242C3000F039F8401CEC
:100D8000F5D0E86A00F08CFD17490320243100F00B
:100D900093FDB6E714480A242C3000F029F8401CD3
:100DA000E5D0E86A00F07CFD0F490320243100F013
:100DB00083FDBFE70C480A242C3000F019F8401CD2
:100DC000B8D1D4E708480A242C3000F011F8401CB0
:100DD00097D1CCE739460548FFF730FF8AE7D5E9D8
:100DE0000A12914286D1C3E734000020B1080020E6
:100DF000034A0168D2691144016000207047000075
:100E00003400002070B500F04BF80420FFF726FDF9
:100E10001020FFF7F9FD00210720FFF79BFD0120BF
:100E2000FFF71CFD0120FFF7EFFD1248FFF74AFD19
:100E300000F07CF8104C2046FFF735FC0F4D28469B
:100E4000FFF731FC002211462046FFF7B5FD0022D6
:100E500011462846FFF7B0FDA006816C084A1140F4
:100E60008164816C074A114381640021C0F800113C
:100E700070BD000000A24A04103D80570200805E51
:100E80000FFFFFF030000003010E01F180418B687D
:100E90000122824013438B608868904388607047CA
:100EA000592110B5880716228823C0F80011C0F810
:100EB0000021C0F80031D0F80041002CF5D010BD61
:100EC00070B5114C0F4E002521787054491CC9B2E1
:100ED00021707554491C102903D20A2801D000281A
:100EE0000FD1002207490420FFF79EF940B90023E3
:100EF00003E0F05C00F00AF85B1C20788342F8DB2A
:100F0000257070BD800000202C00002006498A69F1
:100F10001202FCD408600A2804D188690002FCD4BB
:100F20000D200860704700000000074018B51FA0A2
:100F30004FF0804400680090D4F8400210F4A02FD5
:100F400001D0002117E0010301D5194900E019493A
:100F5000820310D4C0F30802C0F381338908921CC5
:100F60001DF80330C0F344205143801C10FB03F0F4
:100F7000B1FBF0F08100104A9160D4F8100200F04B
:100F80000700022803D002F10C0151F82010D4F818
:100F9000200200F00F00401CB1FBF0F00749106088
:100FA00008444900B0FBF1F0506018BD0102020492
:100FB00000805101001BB7000000002020A10700A5
:100FC00010B55921162288238807C0F80011C0F8EF
:100FD0000021C0F80031D0F80041002CF5D00168A4
:100FE00040F64512B2EB113F03D1416941F0800157
:100FF0004161D0F8001221F48051C0F800120021A4
:10100000C0F800110248016841F47001016010BD90
:1010100088ED00E010B588B00446202214496846E7
:10102000FFF705FA134988038C4204D1D0F8140263
:10103000C0F3022012E00F4920318C4204D1D0F8D5
:101040001402C0F3023009E00B49D0F814028C42BC
:1010500002D1C0F3024001E0C0F30250022803D0E5
:101060005DF8200008B010BD04480068FAE70000F1
:10107000301E000000000540001005400000002068
:1010800070B514460E460546FFF7C4FF0021B4EBC9
:10109000500F01D9022212E00D4A904202D90721D5
:1010A000C0080AE00B4A904202D90321800804E0FC
:1010B000094A904201D901214008B0FBF4F20E43E5
:1010C0002E606A60491C4A43B0FBF2F070BD00001C
:1010D0000090D0030048E8010024F4000348816830
:1010E00021F0020141F001018160704700000540DC
:1010F00010B50A4C0B224FF000612046FFF7C0FFED
:10110000206840F00050206005490120C1F800012E
:10111000206840F08040206010BD000000000540C5
:1011200004E000E010B50548FFF7AEFEBDE8104052
:101130004FF4E131024800F005B80000100000044F
:10114000000007402DE9FF4104461D480D460FC829
:101150008DE80F004FF08040D0F81412D0F8200234
:10116000C1F30166C0F30327002020630320E06081
:10117000A06814490840A060E846012E02D1FFF79C
:1011800075FB0190002D18D058F826007F1CB0FB8D
:10119000F7F101EB5500B0FBF5F0801EB0F5803F94
:1011A00008D301EBC500B0FBF5F06FF0010101EBD6
:1011B000101001E040F040506062BDE8FF81000087
:1011C000501E00000FFFF0FF70B5044600204FF0E6
:1011D00080450CE0002304E05B1CAB4201D30020FF
:1011E00070BDA6697604F7D423680B54401C904266
:1011F000F0D370BD70B5044600204FF080450CE080
:10120000002304E05B1CAB4201D3002070BDA66943
:10121000F600F7D50B5C2360401C9042F0D170BD06
:1012200070B56FF002046510002000F039FB0C4926
:10123000082000F05BF80A48001F00F07FFAA04287
:1012400005D0A84203D0082802D01028ECD170BDE8
:101250004F2000F0DBFDBDE870404F2000F0D6BD10
:10126000580000202DE9F0471F4D0A244FF0FF39A8
:1012700005F120066FF002076FF001082FE01A4811
:10128000203000F05BFA01281DD005DCB84228D0E0
:10129000404526D0F8B91BE00E2804D0102820D0F5
:1012A000122818D106E0A86A00F0FAFA0E49243193
:1012B000032005E0002000F0F3FA0B490020243160
:1012C00000F0FAFA0BE0308868600020BDE8F08793
:1012D000F078122803D0044924310620F0E7641E78
:1012E000CDD54846F2E700003400002070B5054631
:1012F0000C462A2000F08AFD182000F087FD4120CE
:1013000000F084FDE8B200F025F80021284600F046
:101310003FFB0646042508E0207800F01BF814F88F
:10132000010B314600F034FB06466D1EF4D5014634
:10133000002000F02DFB0146002000F029FB0446B0
:10134000C0F3072000F006F8E0B2BDE8704000F0FE
:1013500001B8000070B5134D0446182817D008DCFA
:101360000D2C0FD0102C12D0112C10D0132C13D107
:101370000DE08D2C06D0902C09D0912C07D0932C09
:101380000AD104E0687800F07F00402804D11820DA
:1013900000F03CFD84F040046C702046BDE87040D5
:1013A00000F034BD340000202DE9F04190460E4697
:1013B000044600250BE02046641CFFF781FB07462E
:1013C000FFF7C8FF2946384600F0E2FA0546B44266
:1013D000F1DB182000F01AFD08F0FF0000F016FD08
:1013E0002946404600F0D4FA0146002000F0D0FA29
:1013F0000146002000F0CCFA0446C0F30720FFF7B6
:10140000A9FFE0B2BDE8F041FFF7A4BF2DE9F04726
:1014100000261C4FF41E884681466510FE70BE7083
:101420007E703E7017490420FFF760FF4146484632
:1014300000F082F81348001F00F080F9072812D04E
:1014400009DCA0420FD0A8420DD00128F2D0052817
:10145000E4D1BDE8F087082805D0092806D00D287A
:1014600001D01028DAD14FF0FF30F2E705482438D8
:10147000816A41634046BDE8F0474FF4806100F067
:1014800003B80000580000202DE9F047294A07461C
:10149000506810B1814200DD01460E464FF0FF3921
:1014A000904609E000F00CF901283FD0032803D052
:1014B000052837D1BDE8F0874446D8F8340000F05D
:1014C000EFF91C490A202431FFF710FFA0463446EB
:1014D000D8F834000219BA4200DD3C1AB44201DAED
:1014E000682500E069252A460119FFF75DFFD8F855
:1014F000340001194046C8F834106B2DD2D0692D44
:10150000E5D00546686B00F0CBF90A490B20243181
:10151000FFF7ECFE00F0D4F8012807D00328F1D043
:10152000052805D00928C7D04846C3E70020C1E7F1
:101530002046BFE7340000207FB504465AA00025AE
:101540004DC88DE84D005C4B68465E4203E0027872
:101550001944521C0270B142F9DA0346984202D192
:101560000278302A00D0401C42F21076B14206DBED
:101570000278A1F51C51521C02701039F6E798420E
:1015800002D10278302A00D0401C4FF47A76B14262
:1015900005DB0278A1F57A71521C0270F7E79842D8
:1015A00002D10278302A05D0401C03E00278521C98
:1015B000027064396429F9DA984202D10278302A3B
:1015C00005D0401C03E00278521C02700A390A2937
:1015D000F9DA984202D10278302A05D0401C03E0A3
:1015E0000278521C0270491E0129F9DA334B20227D
:1015F00042709968491C801C996005E064399960C3
:101600000178491C017099686429F7DA401C04E0EC
:101610000A3999600178491C017099680A29F7DA3A
:10162000401C04E0491E99600178491C01709968CA
:101630000129F7DA4270302181700021C1702078D1
:10164000FFF788FE2078294600F0A2F905462078A9
:1016500008B1641CF3E76C462078FFF77BFE207826
:10166000294600F095F90546207808B1641CF3E797
:10167000182000F0CBFB6B2000F0C8FB29466B2044
:1016800000F086F90146002000F082F901460020B2
:1016900000F07EF90446C0F30720FFF75BFEE0B2DE
:1016A000FFF758FE7FBD0000303030303030303032
:1016B00020303030203000006079FEFF3400002000
:1016C00070B507246FF002056E10144800F036F86C
:1016D000052808D008DCA84218D0B04212D0012852
:1016E00001D0032808D170BD07280FD008280DD0DD
:1016F00009280ED0102809D008490620091DFFF737
:10170000F5FDE2E72000A0F10104DED54FF0FF3047
:1017100070BD024920398A6A4A6370BD54000020B6
:1017200010B521210448FEF7B4FE03484021BDE86E
:1017300010402130FEF7ADBE900800202DE9F047A3
:101740000A2605242D4F82464FF000096FF002084B
:10175000E51FC7F81090C7F8149000F0D9F90346B8
:10176000387800B12B46434546D0AB4244D0182BC5
:101770003ED02A2B09D0761E002E02DC1020BDE8B8
:10178000F087182BE5D00524E3E7052400F0C0F925
:101790000346387800B12B4643452DD0AB422BD0C1
:1017A000182B02D02A2BF1D0E5E700F0B1F903465F
:1017B000387800B12B46182B1AD004DC43451BD0D7
:1017C000AB42D8D118E0412B0CD0422BD3D14220D0
:1017D0007861504600F04EF90346504600F08CF90F
:1017E000B86209E041207861504600F0E3F8F3E781
:1017F000641E002CBFDC10231846C0E73400002014
:1018000070B54FF47A75284600F062FA234C6FF0F9
:101810000106217881BB18281AD1284600F058FA11
:10182000217849BB6A282ED006DC182811D06828F8
:1018300029D0692806D126E06B2824D06C2825D031
:101840006D2825D0C0F34111022923D04FF0FF307D
:1018500070BD284600F03CFA217869B91828F7D104
:10186000284600F035FA217831B91828F0D12846F9
:1018700000F02EFA217809B1304670BD1828FCD14D
:101880004FF48C7070BD40F4807070BD7F2070BDCF
:10189000FF2070BD80F0400070BD000034000020CB
:1018A0000449020A08704A70020C8A70000EC8705F
:1018B00070470000580000202DE9F04781460C4693
:1018C0002A2000F0A3FA2A2000F0A0FA182000F045
:1018D0009DFA422000F09AFA2C4D4E4605EB161068
:1018E000007800F093FA06F00F00285C00F08EFA02
:1018F0000021484600F04CF807460426A84611E0AF
:10190000257808EB1510007800F080FA05F00F013B
:1019100018F8010000F07AFA14F8010B394600F0CB
:1019200037F80746761EEBD50146002000F030F868
:101930000146002000F02CF80646C0F3072408EB0F
:1019400014104546007800F061FA04F00F00285C9E
:1019500000F05CFAF4B205EB1410007800F056FACF
:1019600004F00F00285C00F051FA0D2000F04EFA50
:101970000A2000F04BFAB9F1080F04D0BDE8F04797
:10198000112000F043BABDE8F08700006C00002091
:1019900010B5082241F2210308E00C044FEA400090
:1019A000C0F3002404EB410100D55940521EF4D588
:1019B000084610BD2DE9F0410446FFF721FF010A5A
:1019C0000CD1174E3061FFF7E3FF804604250EE08F
:1019D000FFF716FF0746000A02D03846BDE8F0813F
:1019E00041463846FFF7D4FF804604F8017B6D1E60
:1019F000EED5FFF705FF010AF0D14146FFF7C8FF1A
:101A00000446FFF7FDFE010AE8D12146FFF7C0FFBB
:101A10000004000C02D04FF0FF30DFE73069DDE753
:101A2000340000202DE9F04100F072F8104D6FF005
:101A30000106297869B9A0F13004092C00DD273CA2
:101A400014F0F00F4FF0FF370DD100F061F8297856
:101A500011B13046BDE8F0813038092800DD273863
:101A600010F0F00F01D03846F4E740EA0410F1E737
:101A7000340000202DE9F0410446FFF7D3FF002891
:101A800027DB1C4E00213061FFF782FF80460425D2
:101A900009E0FFF7C7FF07001BD44146FFF778FFB7
:101AA000804604F8017B6D1EF3D5FFF7BBFF0028CD
:101AB0000FDB4146FFF76CFF0446FFF7B3FF00283A
:101AC00007DB2146FFF764FF0004000C03D04FF052
:101AD000FF30BDE8F0814FF47A74204600F0F8F84A
:101AE000317821B90D2802D1204600F0F1F8306993
:101AF000EFE7000034000020C178827842EA01213B
:101B00004278007842EA012140EA01207047000053
:101B100070B5084C47F23055284600F0D9F82178C6
:101B2000C0B2002905D100F07F011129F4D013299A
:101B3000F2D070BD3400002030380A2801D20120D4
:101B40007047002070470000002205491820FEF76A
:101B50006BFB01E0FEF7ACFF0028FBD0FEE70000C6
:101B6000260002004FF0FF30704710B50446FFF723
:101B7000A7F9204610BD000070B5174C054601209E
:101B8000E560A061FEF7C6FF0F280CD0042803D142
:101B90002846FFF73FF830B110A0FEF789FBFFF7AA
:101BA000BFFD002070BDE06A000E00F02FF9E06A72
:101BB000C0F3074000F02AF9A08DC0F3072000F021
:101BC00025F994F82C0000F021F909A0FEF770FB2C
:101BD000FFF7A6FDE06A70BD34000020446F776E09
:101BE0006C6F6164206572726F722121210D0A0091
:101BF0006279746573207265636569766564212115
:101C0000210D0A003EB5FFF7FDF8FFF78BFAFFF74D
:101C10006FFAFFF745F9FEF70DFF022101A8FEF765
:101C20001FFF104C10A0FEF743FB18A0FEF740FB6F
:101C3000012269462046FFF7C7FA9DF800103129B6
:101C400002D03229EED107E00B211DA000F06AF886
:101C50009DF80000322802D11C48FFF78DFF0020BC
:101C60003EBD0000000007400AC7EBCAB9D3C368F5
:101C70007970657274726DBDF8D0D0CEC4BCFEBDF3
:101C8000D3CAD5BBF2B7A2CBCD0A00000AC7EBD1AD
:101C9000A1D4F1B9A6C4DC0A31A3BABDD3CAD5CE4A
:101CA000C4BCFEA3A8746573742E747874A3A90AC7
:101CB000323A20B7A2CBCDCEC4BCFE0A0000000051
:101CC000746573742E747874000000009000002016
:101CD0002DE9F843DFF84490114F04464FF0050812
:101CE00000264FF0E025012269464846FFF76CFACE
:101CF00018B19DF80000BDE8F883386800EB80005B
:101D000040006861AE61C5F810802869C003FCD549
:101D10002E61641EE7D1A01EEDE700000000074021
:101D20000400002070B50C460546FFF7F9FC0020C2
:101D3000FFF7B6FD0A490020FFF7BEFDFFF792FA54
:101D4000401C08D021462846FFF760FB401C03D00A
:101D5000FFF766FA204670BDFFF762FA002070BDFB
:101D60005800002010B50446016810A0FEF7A0FA44
:101D700011A06168FEF79CFA12A0A168FEF798FA1C
:101D800013A0E168FEF794FA14A02169FEF790FA17
:101D900015A06169FEF78CFA16A0A169FEF788FA12
:101DA000E169BDE8104016A0FEF782BA723020202B
:101DB0003D20307825780A00723120203D2030788F
:101DC00025780A00723220203D20307825780A00DC
:101DD000723320203D20307825780A00723132207D
:101DE0003D20307825780A006C7220203D20307824
:101DF00025780A00706320203D20307825780A007D
:101E0000707372203D20307825780A0008B50122D1
:101E10008DF8000069460248FFF7ECF908BD0000A4
:101E2000000007404FF04070E1EE100A70470000DC
:101E3000001BB70000800000000000000000000050
:101E40000000000010270000000000000080510189
:101E5000001BB7000000000000800000008051015E
:101E6000001BB7000000000000800000008051014E
:101E7000001BB7000000000000800000008051013E
:101E800030313233343536373839414243444546B0
:101E900040305800303132333435363738396162AA
:101EA0006364656640307800C81E000000000020B2
:101EB000800000007C010000481F0000800000201E
:101EC000F80C000098010000001BB7000C00000097
:101ED000001BB700001BB7000080000000000000DE
:101EE00010270000000000000000000000000000BB
:101EF0000080510100000000000000000000000010
:101F000000000000280000000000000000000000A9
:101F100000000000000000000000000000000000C1
:101F200000000000000000000000000000000000B1
:101F300000000000303132333435363738396162D1
:081F4000636465660000000007
:040000050000023DB8
:00000001FF
